:020000040800F2
:1000000038030020950100089D0100089F010008A9
:1000100000000000000000000000000000000000E0
:10002000000000000000000000000000A101000826
:100030000000000000000000A3010008A501000866
:10004000A701000800000000A7010008A7010008A0
:10005000A7010008A7010008A7010008A7010008E0
:1000600000000000A7010008A701000825060008FD
:10007000A7010008A7010008A70100080000000070
:10008000A70100080000000000000000A701000810
:10009000A7010008A7010008A7010008A7010008A0
:1000A000A7010008A7010008A7010008A701000890
:1000B000A701000800F002F800F040F80CA030C8DA
:1000C000083824182D18A246671EAB4654465D46D4
:1000D000AC4201D100F032F87E460F3E0FCCB6465E
:1000E0000126334200D0FB1AA246AB4633431847E1
:1000F0003C0F00005C0F0000103A02D378C878C1B2
:10010000FAD8520701D330C830C101D504680C6059
:10011000704700000023002400250026103A01D378
:1001200078C1FBD8520700D330C100D50B607047AF
:100130001FB5C046C0461FBD10B510BD00F0D2F9B6
:100140001146FFF7F5FF00F029FE00F0EAF903B4CD
:10015000FFF7F2FF03BC00F0EFF9000070B50546B1
:100160000C46164602E00FCC0FC5103E102EFAD2F8
:10017000082E02D303CC03C5083E042E07D301CCBE
:1001800001C5361F03E021782970641C6D1C761EA2
:10019000F9D270BD0748804707480047FEE7FEE7F1
:1001A000FEE7FEE7FEE7FEE704480549034A054B84
:1001B00070470000D10C0008B5000008380100208D
:1001C0003803002038010020034610B50B439B077D
:1001D0000FD1042A0DD308C810C9121FA342F8D0AA
:1001E00018BA21BA884201D9012010BD0020C043AD
:1001F00010BD002A03D0D30703D0521C07E0002013
:1002000010BD03780C78401C491C1B1B07D10378D8
:100210000C78401C491C1B1B01D1921EF1D11846C1
:1002200010BDF8B5042A2CD3830712D00B78491CD3
:100230000370401C521E83070BD00B78491C0370BF
:10024000401C521E830704D00B78491C0370401CCD
:10025000521E8B079B0F05D0C91ADF002023DE1B1F
:1002600008C90AE0FFF77AFFF8BD1D4608C9FD403E
:100270001C46B4402C4310C0121F042AF5D2F308C8
:10028000C91A521EF0D40B78491C0370401C521E30
:10029000EAD40B78491C0370401C521EE4D4097840
:1002A0000170F8BDD2B210B513029A1813049A184F
:1002B00000F005F910BD002203098B4273D3030A35
:1002C0008B4258D3030B8B423CD3030C8B4221D37C
:1002D00012E003460B437FD4002243088B4274D3C1
:1002E00003098B425FD3030A8B4244D3030B8B4237
:1002F00028D3030C8B420DD3FF22090212BA030C40
:100300008B4202D31212090265D0030B8B4219D320
:1003100000E0090AC30B8B4201D3CB03C01A524140
:10032000830B8B4201D38B03C01A5241430B8B4288
:1003300001D34B03C01A5241030B8B4201D30B0371
:10034000C01A5241C30A8B4201D3CB02C01A524198
:10035000830A8B4201D38B02C01A5241430A8B425B
:1003600001D34B02C01A5241030A8B4201D30B0244
:10037000C01A5241CDD2C3098B4201D3CB01C01A5E
:10038000524183098B4201D38B01C01A5241430968
:100390008B4201D34B01C01A524103098B4201D356
:1003A0000B01C01A5241C3088B4201D3CB00C01AC3
:1003B000524183088B4201D38B00C01A524143083B
:1003C0008B4201D34B00C01A5241411A00D2014660
:1003D0005241104670475DE0CA0F00D049420310F9
:1003E00000D34042534000229C4603098B422DD348
:1003F000030A8B4212D3FC22890112BA030A8B42F0
:100400000CD3890192118B4208D3890192118B423E
:1004100004D389013AD0921100E08909C3098B42C3
:1004200001D3CB01C01A524183098B4201D38B0106
:10043000C01A524143098B4201D34B01C01A5241A9
:1004400003098B4201D30B01C01A5241C3088B42EE
:1004500001D3CB00C01A524183088B4201D38B00D9
:10046000C01A5241D9D243088B4201D34B00C01A63
:100470005241411A00D20146634652415B10104678
:1004800001D34042002B00D54942704763465B10C0
:1004900000D3404201B50020C046C04602BD7047AF
:1004A0007047704701E004C0091F0429FBD28B0785
:1004B00001D50280801CC90700D002707047002956
:1004C0000BD0C30702D00270401C491E022904D37E
:1004D000830702D50280801C891EE3E70022EEE735
:1004E0000022DFE7754600F023F8AE4605006946B6
:1004F0005346C008C000854618B020B5FFF754FE2B
:1005000060BC00274908B6460026C0C5C0C5C0C5A6
:10051000C0C5C0C5C0C5C0C5C0C5403D49008D46A9
:1005200070470446C046C0462046FFF710FE000054
:1005300000487047D800002001491820ABBEFEE7F4
:1005400026000200704710B5012000F09DFC10BD90
:100550000920C006008AC0060012C043000E704782
:1005600070B50C460546402900D94024F02000F023
:1005700001FD23462A46FF21452000F0CBFC70BD3B
:10058000402110B50843FF2100F0B4FC10BD10B5A8
:100590000021084600F0FAFC10BD10B500F0EAFC9E
:1005A00010BD70B50C460546402900D94024E02016
:1005B00000F0E0FC22462946052000F0FBFC70BD5F
:1005C00008B5010E6A461170010C5170010A917054
:1005D000D07004226946062000F0ECFC08BD10B57E
:1005E00000F0D4FC10BD00000D4841690122520406
:1005F000114341610921C90608680F2292060123AF
:1006000090431B07C0180860088A0B688004C01755
:10061000401C93430522D2069A180A6070470000D6
:100620000010024006480168890407D501214903EA
:100630004160044900204860034908707047000089
:1006400000000240400002401400002010B5204C81
:10065000606901214904084360610920C0060168FE
:100660003022914301600168202211430160D100D2
:100670000162A06989010843A0611648E12149028D
:100680000068FFF718FE14498881802088600920DF
:100690000860C8694006FCD5086A40221043086219
:1006A0000E4900200870A06901221043A0610C4887
:1006B000016843151943016060691043606109488E
:1006C00001680902090A01600749D002086010BDEB
:1006D00000100240000000200038014014000020FB
:1006E0000000014008E400E000E100E0064A137861
:1006F000002BFCD101231370044A9160106104485F
:10070000D060044850607047140000204000024050
:100710002838014093100000F1B582B00024FFF7A3
:1007200017FF7D4E00287DD000F0AAFB0746C025AC
:100730000020FFF725FF810703D5F078002851D06E
:10074000A8E080064DD425217448FFF709FF7348BF
:100750000178582906D0AA2943D0BB294DD0BC29FD
:100760003FD14AE004226E496E48FFF72DFD002874
:1007700037D104226C496D48FFF726FD002830D19F
:1007800010226B490298FFF74CFD00217760694801
:1007900071613061B0690224401CB061707800283A
:1007A00020D000207070B7605C4D377800F056F9AB
:1007B000AA21297000216972A972E872000A2873BF
:1007C000FE206873A973EF73380A28742846FF2245
:1007D00014211130FFF766FD25212846FFF7E1FEC1
:1007E000D02557E05449B078095C401C0007000F41
:1007F000B0700F20FFF7F3FE4CE0F178002949D0EC
:100800004D4A4549537C0B77937C4B77D37C8B7750
:10081000127DCA77C17A0746FF2548480090FF2914
:1008200006D000E039E0014610221B38FFF7F9FC42
:100830003B48414902784A7542788A758278CA7580
:10084000C0780876FF221A210098FFF72BFD787AEE
:10085000002802D0012800D00025F57025212F485E
:10086000FFF79FFEF078D025002813D1344C1022DA
:100870003149201DFFF7D5FC2B4948884A78097873
:1008800040BA12041043090608432060012400F016
:10089000F7FA70602846FFF780FEF078002838D11C
:1008A00000F0EEFAF168421A26498A420AD9B16983
:1008B000642901D9002101E06422511A317000211C
:1008C000B161F060B168204A411A914201D9FF211B
:1008D000717071683269411A91421AD970607069F9
:1008E000401C7061A020FFF758FE1349B078095CE6
:1008F000401C0007000FB0700F20FFF770FEC020F3
:10090000FFF74BFE70691F2801D9104800E010481E
:100910003061204603B0F0BD18000020B200002076
:1009200038000020B700002034000020B300002071
:10093000BB000020FE100000A2000020BD0000202F
:100940004800002041E60500E8FD00008F16000089
:100950000A0F000070B5054608200870FFF7F3FD88
:10096000FFF715FE2A48FFF72BFE2A4E0024315DC3
:10097000FF2902D02046FFF732FE641CE4B2322C7D
:10098000F5D3A020FFF709FE01210220FFF727FE83
:100990000220FFF7F5FD0028FAD12220FFF7F0FD35
:1009A00013212420FFF71BFE09212520FFF717FE46
:1009B000A020FFF7F2FD00F047F81749020E0A7079
:1009C000020C4A70020A8A70C870FFF70DFE01001F
:1009D000124809D0FF21C1700D210F20FFF7FFFD44
:1009E000C020FFF7DAFD70BD0021C1702868102219
:1009F000010E0B4801702968090C41702988090A09
:100A000081702978C170291D0648FFF70AFC70BD66
:100A10002AC57554F80F000838000020180000207F
:100A200034000020A200002070B4002253005C18A3
:100A3000657826782C023443521CD2B2C452082A5C
:100A4000F4D370BC7047000003490A6BC86A496B55
:100A5000504048407047000080F7FF1F10B509481C
:100A6000816804221143816001684907FCD506486A
:100A70000068064980B248430549FFF71CFC80B274
:100A800010BD000000240140402401400A1A00006B
:100A9000F69F000070B500F0E3F82749486901228D
:100AA0005204104348610920C006026803231A4318
:100AB000026088694A1510438861486B0125284304
:100AC0004863486B8007FCD51C4882685208520076
:100AD0008260826843051A4382608268002AFCDBD8
:100AE00082682A4382600268D207FCD002699200C1
:100AF00092080261C2680123DB031A43C260856267
:100B0000002444610E488460C8692843C8610E48C7
:100B10000C490068FFF7CFFB0C49401E0881611E9D
:100B200001208007C16244628582018AC907FCD026
:100B30000482058070BD00000010024000240140C6
:100B40000027014040420F0000000020200000402C
:100B5000012210B49302994219D84A1C5408621E0B
:100B60000C4B92B2002C11D01C8804709B1C401CB2
:100B7000491E0904090C04D0240A0470401C491EB3
:100B800089B21446521E92B2002CEDD1002210BC44
:100B900010467047003C0008F0B4012293029942CD
:100BA00052D82B4FFA68D207FCD13A69120603D506
:100BB000284A7A60284A7A60284B3A6902242243FC
:100BC0003A617B613A6940252A433A61FA68D20763
:100BD000FCD1FA6895062022002D02DAFD68154343
:100BE000FD603D69A5433D614C1C65086C1EA4B2C7
:100BF000002D24D001260278401C491E0904090C4E
:100C000005D00578401C2D022A43491E89B23D6952
:100C100035433D611A809B1CFA68D207FCD1FA6803
:100C2000920603D5FA6820252A43FA603A695208E9
:100C300052003A612246641EA4B2002ADBD1386910
:100C40008021084338610022F0BC10467047000044
:100C50000020024023016745AB89EFCD003C00082E
:100C600070B5164E71680C2001401548154D03D023
:100C7000042901D0082901D0286011E07268716848
:100C800003239202DB03140F1940A41C002910D087
:100C9000F16A0907090F491CFFF70DFB6043286043
:100CA000706809490006000F085C2968C140296086
:100CB00070BD064844432C60F2E70000001002407B
:100CC00000127A00000000200400002000093D000E
:100CD000264801680122114301604168244A1140FD
:100CE00041600168234A11400160016801229204B9
:100CF0009143016041683F22120491434160C16AFF
:100D000009090901C162016BFF2254329143016359
:100D1000416B49084900416300218160164A102156
:100D20001160416841604168416041687F22D2039F
:100D3000914341604168032292041143416001687C
:100D4000012212061143016001688901FCD5416846
:100D5000890889004160416802221143416041686D
:100D60000907890F0229FAD17047000000100240DC
:100D70000CB8FF08FFFFF6FE0020024030B4401E12
:100D80000AD37D25ED00EC06636A2946626AD21A11
:100D90008A42FBD3401EF7D230BC704782B0FFF7C7
:100DA00079FEFFF753FC6420FFF7E8FF06212CA033
:100DB000FFF79CFC14212C48FFF7CAFE2B492A4858
:100DC000FFF7C8FD002425462948FFF7A5FC0228A7
:100DD00002D0012806D009E025492648FFF724FE65
:100DE000FF2403E014212048FFF7D6FE00F048F866
:100DF000411B21488142E7D9002CE5D01D480090D5
:100E000046381E4D077800202870012068700024A5
:100E10001BE000986600805B7D21C900884201D9F3
:100E2000401A00E000208202101AFF30F530FFF770
:100E300042FAA1028005800D0843020A7119641C60
:100E40008A70E4B2C870072C01D2BC42E1D31021F1
:100E50000A48FFF74BFC002400F012F80546B3E700
:100E600053746172740A0000480000203C000020A6
:100E70005C00002082000020F82A00009200002080
:100E800001208007406A70471749486903225204CD
:100E9000104348610920C0060268FF231B029A43E1
:100EA000026002681523DB021A430260C2684B1518
:100EB0001A43C2600D4802680C239A43026002681C
:100EC00004231A4302600222826188698A14104353
:100ED0008861074800210180172109028180D12102
:100EE00089000180704700000010024000040048A3
:100EF0000030014010B50122054B52040C469A61A6
:100F000000F02AF8204600F027F80221996110BD70
:100F100000040048F0B50D4601210D4F4904164666
:100F2000B96100F019F80024002B0DD9094A118984
:100F30008907FCD515731189C907FCD091893155F2
:100F4000641CE4B29C42F2D30221B961F0BD0000FE
:100F5000000400480030014005490A899207FCD589
:100F600008730889C007FCD08889C0B270470000A8
:100F70000030014000B50121034B49049961FFF79E
:100F8000EBFF0221996100BD0004004830B50C461A
:100F900001460120064B400498610846FFF7DCFF3C
:100FA00005462046FFF7D8FF02209861284630BD4D
:100FB00000040048F0B50E4601210D4F49041546C6
:100FC000B961FFF7C9FF0023002D0DD9094AF15C73
:100FD0001489A407FCD511731189C907FCD0918924
:100FE0005B1CDBB2AB42F2D30221B961F0BD000061
:100FF0000004004800300140FF62002500FFFF00B0
:1010000000000001190500509E4B0002162B124FE4
:101010006280FFFF2A32C31F1EFF00FF00003B005B
:101020001747800301451800010F00004C1000080D
:10103000000000203C000000F800000888100008B4
:101040003C000020FC02000014010008002D3101CA
:101050000000000000000000010203040607080968
:101060000000000000000000000000000000000080
:10107000000000000A0F0000000000000000000057
:08108000000000000000000068
:04000005080000B53A
:00000001FF
